:020000040000FA
:08000000803102288731F52F41
:1000BA000800640080010131890B5F2800342000A8
:1000CA00911E682869286428230019080800F0008E
:1000DA002000111E712872286D28700823009A00CA
:1000EA000800F4007408F2007208F3008028013056
:1000FA00F2007208F4077408860087010108031DDC
:10010A00872888287C2873087402F000F101F01B04
:10011A00F10308007408803AF50080307502031D67
:10012A0098280130730203189B289C28A828730971
:10013A00F5007409F600F50A0319F60A7508F300C2
:10014A007608F400A8280800F400F201F301720806
:10015A007407F1007108860087010108031DB6289B
:10016A00B728B828C72872087407F10071088600F2
:10017A008701010880316C2080310130F20700309C
:10018A00F33DAC2808002100CB006930FD007D0852
:10019A00CA004B08FD007D08CC00CD01CE01CF017D
:1001AA00D00120006808E0006708DF00CA30FD00BF
:1001BA007D08E100CC3081311421803121004D08C5
:1001CA004B07FD007D088600870181010800200099
:1001DA00A300A101A20104292008F900FA01790863
:1001EA00F0007A08F1007808FB007B08F200813100
:1001FA00C121803101302000A1070030A23D210831
:10020A002307F9007908860087010108FA007A08AD
:10021A00A0002008031D12291329F1280800200034
:10022A00E4006008E6005F08E5002100A001A101E2
:10023A0032296530E2006208CE006108E3006308F3
:10024A00CF00640885317925813120004E082100CC
:10025A00A00720004F082100A13D20006508840066
:10026A00660885001200031D3B293C291E2921002E
:10027A0021082000E000210020082000DF000800FB
:10028A00F8007808F2000130F235FF3E031D4929D3
:10029A007235013821009D000D30890B522900006A
:1002AA0021009D149D185A295B2957291C08F20020
:1002BA00F3017208F9007308FA001B08F200F3014F
:1002CA007908F500F40172087404F60073087504DD
:1002DA00F7007608F9007708FA007A08F100790839
:1002EA00F000080070302100990000302000A300BF
:1002FA000030A2002530A1008030A0001430ED00AB
:10030A006D08A4000F30EE006E08A500823110229D
:10031A0081318031642081312000ED006D08210097
:10032A00E3006308D03E8131452181317108210003
:10033A00E2007008E10000302000E7008830E800A1
:10034A00210063082000ED00EE016D08E9006E0847
:10035A00EA00210062082000EC0021006108200068
:10036A00EB00D1308031C8208131D1308031A920D1
:10037A0081318E298031022872080319C529C629BC
:10038A00CB297208031DCA29CB29D02970088031CC
:10039A005D2081310F2A7208033E8600870116000C
:1003AA0001040319D929DA29F7297208033E8600BC
:1003BA008701403FF300413FF400720A860087013B
:1003CA00403FF500413FF6007608803AF70074088E
:1003DA00803A7702031DF329730875020318F62978
:1003EA00F7290F2A7008F300720886008701720A3B
:1003FA008400850100080107F4007408860087015B
:10040A0073088100720A8600870101308107413131
:10041A000318810A080020002408FC3923008C00F4
:10042A002000250823008E0020002408FC39023809
:10043A0021008C002000250821008E0020008C015C
:10044A008E01903021009E0014303D009000013052
:10045A003C00A400243023009E009F1590309D008C
:10046A0020002308F3002208F2002108F1002008E6
:10047A00F0000130F700E830F6004830F5000030AF
:10048A00F4008231C022823170082000A60071086F
:10049A00A7007208A8007308A9000230A936A80CA0
:1004AA00A70CA60C890B532A2608FF3EAA00FF3088
:1004BA00273DAB002B0823009C0020002A082300BC
:1004CA009B0008002000AB002100261C6D2A6E2A22
:1004DA00772A20002B08FC007C08F80024088031C9
:1004EA00EC2082312000A61B7B2A7C2A812A26083E
:1004FA00AA002508A900832AA901AA01A701A8011F
:10050A00972A2030F0000030F10020002B08FC0070
:10051A007C08F2008131C121823101302000A70715
:10052A000030A83D2808803AFC002A08803A7C025C
:10053A00031DA12A29082702031CA42AA52A862A00
:10054A0021002618A92AAA2AB32A20002B08FC006F
:10055A007C08F80024088031EC208231200024082D
:10056A00803176208231200029087007A4002A08E9
:10057A00713DA50008000030FC000030FB0000308F
:10058A00FA000030F9007308720471047004031948
:10059A00CF2AD02A112BFD01FD0ADE2A0130F035BF
:1005AA00F10DF20DF30D890BD42A0130F800780809
:1005BA00FD07F31FE12AE22AD32A0130F935FA0DA1
:1005CA00FB0DFC0D890BE32A73087702031DF72A3A
:1005DA0072087602031DF72A71087502031DF72AAD
:1005EA0070087402031CFA2AFB2A042B7008F4020E
:1005FA007108F53B7208F63B7308F73B7914013032
:10060A00F336F20CF10CF00C890B052B0130FD02CC
:10061A00031D102B112BE22A7C08F3007B08F20041
:10062A007A08F1007908F00008002000A4002100EF
:10063A0022082304031D222B232B2B2B2308200003
:10064A00A300210022082000A200342B2208FF3E2A
:10065A002000A200FF302100233D2000A30021003A
:10066A00261C382B392B482B7808FA00FB017A080C
:10067A00F0007B08F10020002408FC007C08F2004E
:10068A008131C12183312000A31B4C2B4D2B4E2BD2
:10069A00502BA201A301A001A101642B2030F0007C
:1006AA000030F10020002408FA007A08F2008131B3
:1006BA00C121833101302000A0070030A13D21086B
:1006CA00803AFA002308803A7A02031D6E2B220828
:1006DA002002031C712B722B532B21002618762B18
:1006EA00772B862B7808FA00FB017A08F0007B0842
:1006FA00F10020002408FC007C08F2008131C121AD
:10070A00833120002008013EF8000030213DF90025
:10071A000800F2012830860000308700473FF000C9
:10072A00F01F982B992BBA2B2000A809A909AA090E
:10073A00AB09AC09AD09AE09AF09A80A031DB82B6C
:10074A00A90A031DB82BAA0A031DB82BAB0A031D5D
:10075A00B82BAC0A031DB82BAD0A031DB82BAE0A81
:10076A00031DB82BAF0AF201F20A203086000030CE
:10077A008700473FF000F01FC32BC42BE32B200058
:10078A00A009A109A209A309A409A509A609A709FB
:10079A00A00A031DE32BA10A031DE32BA20A031DD2
:1007AA00E32BA30A031DE32BA40A031DE32BA50ACB
:1007BA00031DE32BA60A031DE32BA70A200020082A
:1007CA0021042204230424042504260427040319EB
:1007DA00EF2BF02B432CF101F10AFF2BA035A10DD1
:1007EA00A20DA30DA40DA50DA60DA70D0130F000B5
:1007FA007008F107A71F022C032CF32B27082F02DE
:10080A00031D212C26082E02031D212C25082D024A
:10081A00031D212C24082C02031D212C23082B0242
:10082A00031D212C22082A02031D212C210829023A
:10083A00031D212C20082802031C242C252C352CCE
:10084A002008A8022108A93B2208AA3B2308AB3B9F
:10085A002408AC3B2508AD3B2608AE3B2708AF3B36
:10086A00A736A60CA50CA40CA30CA20CA10CA00CD8
:10087A000130F102031D422C432C032C7208031988
:10088A00472C482C662CA809A909AA09AB09AC0966
:10089A00AD09AE09AF09A80A031D662CA90A031DF2
:1008AA00662CAA0A031D662CAB0A031D662CAC0A29
:1008BA00031D662CAD0A031D662CAE0A031D662CA9
:1008CA00AF0A20002808A0002908A1002A08A200CF
:1008DA002B08A3002C08A4002D08A5002E08A600AA
:1008EA002F08A7000800F201203086000030870098
:1008FA00473FF000F01F822C832CA42C2000A00973
:10090A00A109A209A309A409A509A609A709A00A78
:10091A00031DA22CA10A031DA22CA20A031DA22CAC
:10092A00A30A031DA22CA40A031DA22CA50A031DB7
:10093A00A22CA60A031DA22CA70AF201F20A283049
:10094A00860000308700473FF000F01FAD2CAE2C28
:10095A00D12C2000A809A909AA09AB09AC09AD093B
:10096A00AE09AF09A80A031DCD2CA90A031DCD2C77
:10097A00AA0A031DCD2CAB0A031DCD2CAC0A031DFC
:10098A00CD2CAD0A031DCD2CAE0A031DCD2CAF0A0A
:10099A000130F0007008F2067330860000308700DC
:1009AA000830F00000301E00F00BD82C2000200880
:1009BA0021042204230424042504260427040319F9
:1009CA00E72CE82C442DF101F10AF72CA035A10DF2
:1009DA00A20DA30DA40DA50DA60DA70D0130F000C3
:1009EA007008F107A71FFA2CFB2CEB2CF335F40D3A
:1009FA00F50DF60DF70DF80DF90DFA0D27082F0272
:100A0A00031D212D26082E02031D212D25082D0246
:100A1A00031D212D24082C02031D212D23082B023E
:100A2A00031D212D22082A02031D212D2108290236
:100A3A00031D212D20082802031C242D252D362DC7
:100A4A002008A8022108A93B2208AA3B2308AB3B9D
:100A5A002408AC3B2508AD3B2608AE3B2708AF3B34
:100A6A007314A736A60CA50CA40CA30CA20CA10CFB
:100A7A00A00C0130F102031D432D442DFB2C7208FA
:100A8A000319482D492D672DF309F409F509F609CB
:100A9A00F709F809F909FA09F30A031D672DF40A97
:100AAA00031D672DF50A031D672DF60A031D672D21
:100ABA00F70A031D672DF80A031D672DF90A031D9E
:100ACA00672DFA0A73082000A0007408A1007508AF
:100ADA00A2007608A3007708A4007808A500790880
:100AEA00A6007A08A70008002000DE004E0886004B
:100AFA008701403FD000413FD1005008840051088F
:100B0A0085001200253A031D8B2D8C2D632E4E086D
:100B1A00860087010130810741310318810A2100CB
:100B2A00A201A301A601A701FF30A400FF30A5007E
:100B3A0020004E0886008701403FD000413FD10087
:100B4A0050088400510885001200633A031DAE2D37
:100B5A00AF2DD12D4E088600870101308107413122
:100B6A000318810A4F08860087010108840085015D
:100B7A00023081070008D0005008DD005D08D0006F
:100B8A005008F8005E0883311A238531790820005D
:100B9A00CF007808CE00862E4E0886008701403F97
:100BAA00D000413FD100500884005108850012004E
:100BBA00643A0319E12DE22DF32D4E0886008701D0
:100BCA00403FD000413FD1005008840051088500C1
:100BDA001200693A031DF22DF32D2E2E4E088600BF
:100BEA0087010130810741310318810A4F088600C5
:100BFA00870101088400850102308107003FD00087
:100C0A00013FD1005008D5005108D600890D893B13
:100C1A008909D700D800D900DA00DB00DC005508C2
:100C2A00B0005608B1005708B2005808B300590876
:100C3A00B4005A08B5005B08B6005C08B7005E0845
:100C4A0086318726853120003108CF003008CE0052
:100C5A00862E4E0886008701403FD000413FD100D2
:100C6A0050088400510885001200253A031D3E2EC3
:100C7A003F2E582E4E0886008701013081074131E8
:100C8A000318810A2530F0000030F1005E08D00018
:100C9A005008F2008131C121853101302000CE0097
:100CAA000030CF00862E4E0886008701013081076A
:100CBA0041310318810ACE01CF01862E4E088600E3
:100CCA008701403FD000413FD100500884005108BD
:100CDA0085000008D200D3015208F0005308F10041
:100CEA005E08D4005408F2008131C1218531200008
:100CFA004E08860087010130810741310318810AB5
:100D0A00522E08002000BD003008C4003108C5007A
:100D1A003208C6003308C7003408C8003508C900BD
:100D2A003608CA003708CB004430860000308700F6
:100D3A00473FB800B81BA22EA42E0130A52E0030C2
:100D4A002000B900BA013908C2003A08C3004208B3
:100D5A0043040319B12EB22ED02EC409C509C609FF
:100D6A00C709C809C909CA09CB09C40A031DD02E73
:100D7A00C50A031DD02EC60A031DD02EC70A031D9D
:100D8A00D02EC80A031DD02EC90A031DD02ECA0AA6
:100D9A00031DD02ECB0A2100A51BD42ED52ED92E69
:100DAA00FD30A605FF30A7052508803A2000B800C7
:100DBA0080303802031DE42E01302100240203187A
:100DCA00E72EE82EEE2E01302000BE000030BF00D4
:100DDA00F62E210025082000BF002100240820004B
:100DEA00BE00210023082000C100210022082000A3
:100DFA00C00042084304031D032F042F092F2100BA
:100E0A00261D082F092F0E2FFF302000C007FF30A4
:100E1A00C13D1F302000CC000030CD002100C701A9
:100E2A007E2FFF302000CC07FF30CD3D0A30A000D6
:100E3A00A101A201A301A401A501A601A7014408D9
:100E4A00A8004508A9004608AA004708AB004808B8
:100E5A00AC004908AD004A08AE004B08AF00833128
:100E6A008E23863120002108F4002008F300803107
:100E7A008F2086317308303E2000B8004C08A83E07
:100E8A008600870138088100FF30BE07FF30BF3D6A
:100E9A00FF30C007FF30C13D0A30A000A101A20106
:100EAA00A301A401A501A601A7014408A8004508B9
:100EBA00A9004608AA004708AB004808AC00490840
:100ECA00AD004A08AE004B08AF0084317824863161
:100EDA0020002008C4002108C5002208C6002308F3
:100EEA00C7002408C8002508C9002608CA00270820
:100EFA00CB0020004D08803AB80080303802031D2C
:100F0A00882F01304C02031C8B2F8C2FB92F200005
:100F1A004408450446044704480449044A044B0467
:100F2A00031D982F992F162F3F08803AB80080305A
:100F3A003802031DA22F01303E020318A52FA62F47
:100F4A00162F20004108803AB80080303802031D6D
:100F5A00B02F01304002031CB32FB42FB92F210048
:100F6A00A618B82FB92F162F200042084304031DD4
:100F7A00BF2FC02FC52F2100261DC42FC52FE12F3B
:100F8A00FF302000CC07FF30CD3D42084304031D4B
:100F9A00CF2FD02FD52F2B30BB000030BC00D92F3C
:100FAA002D30BB000030BC003B08B8004C08A83EFE
:100FBA00860087013808810020004C08A83EB80046
:100FCA003808A4004108A6004008A5003D0882315F
:100FDA006722863120002508B1002408B0000800E5
:100FEA00A030840000308500283080315E208731AF
:100FFA00200081317729253463343A342534643426
:04100A002C3400344E
:020000040001F9
:04000E00840FFB1B45
:00000001FF
